{
  "contractName": "TriracleToken",
  "abi": [
    {
      "constant": true,
      "inputs": [],
      "name": "mintingFinished",
      "outputs": [
        {
          "name": "",
          "type": "bool"
        }
      ],
      "payable": false,
      "stateMutability": "view",
      "type": "function"
    },
    {
      "constant": true,
      "inputs": [],
      "name": "name",
      "outputs": [
        {
          "name": "",
          "type": "string"
        }
      ],
      "payable": false,
      "stateMutability": "view",
      "type": "function"
    },
    {
      "constant": false,
      "inputs": [
        {
          "name": "_spender",
          "type": "address"
        },
        {
          "name": "_value",
          "type": "uint256"
        }
      ],
      "name": "approve",
      "outputs": [
        {
          "name": "",
          "type": "bool"
        }
      ],
      "payable": false,
      "stateMutability": "nonpayable",
      "type": "function"
    },
    {
      "constant": true,
      "inputs": [],
      "name": "totalSupply",
      "outputs": [
        {
          "name": "",
          "type": "uint256"
        }
      ],
      "payable": false,
      "stateMutability": "view",
      "type": "function"
    },
    {
      "constant": false,
      "inputs": [
        {
          "name": "from",
          "type": "address"
        },
        {
          "name": "to",
          "type": "address"
        },
        {
          "name": "value",
          "type": "uint256"
        }
      ],
      "name": "transferFrom",
      "outputs": [
        {
          "name": "",
          "type": "bool"
        }
      ],
      "payable": false,
      "stateMutability": "nonpayable",
      "type": "function"
    },
    {
      "constant": true,
      "inputs": [],
      "name": "decimals",
      "outputs": [
        {
          "name": "",
          "type": "uint8"
        }
      ],
      "payable": false,
      "stateMutability": "view",
      "type": "function"
    },
    {
      "constant": true,
      "inputs": [],
      "name": "endTime",
      "outputs": [
        {
          "name": "",
          "type": "uint256"
        }
      ],
      "payable": false,
      "stateMutability": "view",
      "type": "function"
    },
    {
      "constant": false,
      "inputs": [
        {
          "name": "_to",
          "type": "address"
        },
        {
          "name": "_amount",
          "type": "uint256"
        }
      ],
      "name": "mint",
      "outputs": [
        {
          "name": "",
          "type": "bool"
        }
      ],
      "payable": false,
      "stateMutability": "nonpayable",
      "type": "function"
    },
    {
      "constant": true,
      "inputs": [
        {
          "name": "_owner",
          "type": "address"
        }
      ],
      "name": "balanceOf",
      "outputs": [
        {
          "name": "balance",
          "type": "uint256"
        }
      ],
      "payable": false,
      "stateMutability": "view",
      "type": "function"
    },
    {
      "constant": true,
      "inputs": [],
      "name": "startTime",
      "outputs": [
        {
          "name": "",
          "type": "uint256"
        }
      ],
      "payable": false,
      "stateMutability": "view",
      "type": "function"
    },
    {
      "constant": false,
      "inputs": [],
      "name": "finishMinting",
      "outputs": [
        {
          "name": "",
          "type": "bool"
        }
      ],
      "payable": false,
      "stateMutability": "nonpayable",
      "type": "function"
    },
    {
      "constant": true,
      "inputs": [],
      "name": "owner",
      "outputs": [
        {
          "name": "",
          "type": "address"
        }
      ],
      "payable": false,
      "stateMutability": "view",
      "type": "function"
    },
    {
      "constant": false,
      "inputs": [
        {
          "name": "_amount",
          "type": "uint256"
        },
        {
          "name": "destroyer",
          "type": "address"
        }
      ],
      "name": "destroy",
      "outputs": [],
      "payable": false,
      "stateMutability": "nonpayable",
      "type": "function"
    },
    {
      "constant": true,
      "inputs": [],
      "name": "symbol",
      "outputs": [
        {
          "name": "",
          "type": "string"
        }
      ],
      "payable": false,
      "stateMutability": "view",
      "type": "function"
    },
    {
      "constant": false,
      "inputs": [
        {
          "name": "to",
          "type": "address"
        },
        {
          "name": "value",
          "type": "uint256"
        }
      ],
      "name": "transfer",
      "outputs": [
        {
          "name": "",
          "type": "bool"
        }
      ],
      "payable": false,
      "stateMutability": "nonpayable",
      "type": "function"
    },
    {
      "constant": true,
      "inputs": [
        {
          "name": "_owner",
          "type": "address"
        },
        {
          "name": "_spender",
          "type": "address"
        }
      ],
      "name": "allowance",
      "outputs": [
        {
          "name": "remaining",
          "type": "uint256"
        }
      ],
      "payable": false,
      "stateMutability": "view",
      "type": "function"
    },
    {
      "constant": false,
      "inputs": [
        {
          "name": "newOwner",
          "type": "address"
        }
      ],
      "name": "transferOwnership",
      "outputs": [],
      "payable": false,
      "stateMutability": "nonpayable",
      "type": "function"
    },
    {
      "inputs": [
        {
          "name": "_startTime",
          "type": "uint256"
        },
        {
          "name": "_endTime",
          "type": "uint256"
        }
      ],
      "payable": false,
      "stateMutability": "nonpayable",
      "type": "constructor"
    },
    {
      "anonymous": false,
      "inputs": [
        {
          "indexed": true,
          "name": "to",
          "type": "address"
        },
        {
          "indexed": false,
          "name": "amount",
          "type": "uint256"
        }
      ],
      "name": "Mint",
      "type": "event"
    },
    {
      "anonymous": false,
      "inputs": [],
      "name": "MintFinished",
      "type": "event"
    },
    {
      "anonymous": false,
      "inputs": [
        {
          "indexed": true,
          "name": "owner",
          "type": "address"
        },
        {
          "indexed": true,
          "name": "spender",
          "type": "address"
        },
        {
          "indexed": false,
          "name": "value",
          "type": "uint256"
        }
      ],
      "name": "Approval",
      "type": "event"
    },
    {
      "anonymous": false,
      "inputs": [
        {
          "indexed": true,
          "name": "from",
          "type": "address"
        },
        {
          "indexed": true,
          "name": "to",
          "type": "address"
        },
        {
          "indexed": false,
          "name": "value",
          "type": "uint256"
        }
      ],
      "name": "Transfer",
      "type": "event"
    }
  ],
  "bytecode": "0x60606040526000600360146101000a81548160ff02191690831515021790555034156200002b57600080fd5b6040516040806200188e8339810160405280805190602001909190805190602001909190505033600360006101000a81548173ffffffffffffffffffffffffffffffffffffffff021916908373ffffffffffffffffffffffffffffffffffffffff1602179055506040805190810160405280601281526020017f5450502049434f20544f4b454e2053414c45000000000000000000000000000081525060049080519060200190620000df9291906200034f565b506040805190810160405280600381526020017f5450500000000000000000000000000000000000000000000000000000000000815250600590805190602001906200012d9291906200034f565b506012600660006101000a81548160ff021916908360ff160217905550816007819055508060088190555062000183336a108b2a2c280290940000006200018c64010000000002620008df176401000000009004565b505050620003fe565b6000600360009054906101000a900473ffffffffffffffffffffffffffffffffffffffff1673ffffffffffffffffffffffffffffffffffffffff163373ffffffffffffffffffffffffffffffffffffffff16141515620001eb57600080fd5b600360149054906101000a900460ff161515156200020857600080fd5b6200022d82600054620003306401000000000262001282179091906401000000009004565b6000819055506200029582600160008673ffffffffffffffffffffffffffffffffffffffff1673ffffffffffffffffffffffffffffffffffffffff16815260200190815260200160002054620003306401000000000262001282179091906401000000009004565b600160008573ffffffffffffffffffffffffffffffffffffffff1673ffffffffffffffffffffffffffffffffffffffff168152602001908152602001600020819055508273ffffffffffffffffffffffffffffffffffffffff167f0f6798a560793a54c3bcfe86a93cde1e73087d944c0ea20544137d4121396885836040518082815260200191505060405180910390a26001905092915050565b60008082840190508381101515156200034557fe5b8091505092915050565b828054600181600116156101000203166002900490600052602060002090601f016020900481019282601f106200039257805160ff1916838001178555620003c3565b82800160010185558215620003c3579182015b82811115620003c2578251825591602001919060010190620003a5565b5b509050620003d29190620003d6565b5090565b620003fb91905b80821115620003f7576000816000905550600101620003dd565b5090565b90565b611480806200040e6000396000f3006060604052600436106100f1576000357c0100000000000000000000000000000000000000000000000000000000900463ffffffff16806305d2035b146100f657806306fdde0314610123578063095ea7b3146101b157806318160ddd1461020b57806323b872dd14610234578063313ce567146102ad5780633197cbb6146102dc57806340c10f191461030557806370a082311461035f57806378e97925146103ac5780637d64bcb4146103d55780638da5cb5b146104025780638dec3daa1461045757806395d89b4114610499578063a9059cbb14610527578063dd62ed3e14610581578063f2fde38b146105ed575b600080fd5b341561010157600080fd5b610109610626565b604051808215151515815260200191505060405180910390f35b341561012e57600080fd5b610136610639565b6040518080602001828103825283818151815260200191508051906020019080838360005b8381101561017657808201518184015260208101905061015b565b50505050905090810190601f1680156101a35780820380516001836020036101000a031916815260200191505b509250505060405180910390f35b34156101bc57600080fd5b6101f1600480803573ffffffffffffffffffffffffffffffffffffffff169060200190919080359060200190919050506106d7565b604051808215151515815260200191505060405180910390f35b341561021657600080fd5b61021e61085e565b6040518082815260200191505060405180910390f35b341561023f57600080fd5b610293600480803573ffffffffffffffffffffffffffffffffffffffff1690602001909190803573ffffffffffffffffffffffffffffffffffffffff16906020019091908035906020019091905050610864565b604051808215151515815260200191505060405180910390f35b34156102b857600080fd5b6102c06108c6565b604051808260ff1660ff16815260200191505060405180910390f35b34156102e757600080fd5b6102ef6108d9565b6040518082815260200191505060405180910390f35b341561031057600080fd5b610345600480803573ffffffffffffffffffffffffffffffffffffffff169060200190919080359060200190919050506108df565b604051808215151515815260200191505060405180910390f35b341561036a57600080fd5b610396600480803573ffffffffffffffffffffffffffffffffffffffff16906020019091905050610a61565b6040518082815260200191505060405180910390f35b34156103b757600080fd5b6103bf610aaa565b6040518082815260200191505060405180910390f35b34156103e057600080fd5b6103e8610ab0565b604051808215151515815260200191505060405180910390f35b341561040d57600080fd5b610415610b5c565b604051808273ffffffffffffffffffffffffffffffffffffffff1673ffffffffffffffffffffffffffffffffffffffff16815260200191505060405180910390f35b341561046257600080fd5b610497600480803590602001909190803573ffffffffffffffffffffffffffffffffffffffff16906020019091905050610b82565b005b34156104a457600080fd5b6104ac610d11565b6040518080602001828103825283818151815260200191508051906020019080838360005b838110156104ec5780820151818401526020810190506104d1565b50505050905090810190601f1680156105195780820380516001836020036101000a031916815260200191505b509250505060405180910390f35b341561053257600080fd5b610567600480803573ffffffffffffffffffffffffffffffffffffffff16906020019091908035906020019091905050610daf565b604051808215151515815260200191505060405180910390f35b341561058c57600080fd5b6105d7600480803573ffffffffffffffffffffffffffffffffffffffff1690602001909190803573ffffffffffffffffffffffffffffffffffffffff16906020019091905050610e74565b6040518082815260200191505060405180910390f35b34156105f857600080fd5b610624600480803573ffffffffffffffffffffffffffffffffffffffff16906020019091905050610efb565b005b600360149054906101000a900460ff1681565b60048054600181600116156101000203166002900480601f0160208091040260200160405190810160405280929190818152602001828054600181600116156101000203166002900480156106cf5780601f106106a4576101008083540402835291602001916106cf565b820191906000526020600020905b8154815290600101906020018083116106b257829003601f168201915b505050505081565b60008082148061076357506000600260003373ffffffffffffffffffffffffffffffffffffffff1673ffffffffffffffffffffffffffffffffffffffff16815260200190815260200160002060008573ffffffffffffffffffffffffffffffffffffffff1673ffffffffffffffffffffffffffffffffffffffff16815260200190815260200160002054145b151561076e57600080fd5b81600260003373ffffffffffffffffffffffffffffffffffffffff1673ffffffffffffffffffffffffffffffffffffffff16815260200190815260200160002060008573ffffffffffffffffffffffffffffffffffffffff1673ffffffffffffffffffffffffffffffffffffffff168152602001908152602001600020819055508273ffffffffffffffffffffffffffffffffffffffff163373ffffffffffffffffffffffffffffffffffffffff167f8c5be1e5ebec7d5bd14f71427d1e84f3dd0314c0f7b2291e5b200ac8c7c3b925846040518082815260200191505060405180910390a36001905092915050565b60005481565b60008073ffffffffffffffffffffffffffffffffffffffff168373ffffffffffffffffffffffffffffffffffffffff16141515156108a157600080fd5b60085442101515156108b257600080fd5b6108bd848484610fd2565b90509392505050565b600660009054906101000a900460ff1681565b60085481565b6000600360009054906101000a900473ffffffffffffffffffffffffffffffffffffffff1673ffffffffffffffffffffffffffffffffffffffff163373ffffffffffffffffffffffffffffffffffffffff1614151561093d57600080fd5b600360149054906101000a900460ff1615151561095957600080fd5b61096e8260005461128290919063ffffffff16565b6000819055506109c682600160008673ffffffffffffffffffffffffffffffffffffffff1673ffffffffffffffffffffffffffffffffffffffff1681526020019081526020016000205461128290919063ffffffff16565b600160008573ffffffffffffffffffffffffffffffffffffffff1673ffffffffffffffffffffffffffffffffffffffff168152602001908152602001600020819055508273ffffffffffffffffffffffffffffffffffffffff167f0f6798a560793a54c3bcfe86a93cde1e73087d944c0ea20544137d4121396885836040518082815260200191505060405180910390a26001905092915050565b6000600160008373ffffffffffffffffffffffffffffffffffffffff1673ffffffffffffffffffffffffffffffffffffffff168152602001908152602001600020549050919050565b60075481565b6000600360009054906101000a900473ffffffffffffffffffffffffffffffffffffffff1673ffffffffffffffffffffffffffffffffffffffff163373ffffffffffffffffffffffffffffffffffffffff16141515610b0e57600080fd5b6001600360146101000a81548160ff0219169083151502179055507fae5184fba832cb2b1f702aca6117b8d265eaf03ad33eb133f19dde0f5920fa0860405160405180910390a16001905090565b600360009054906101000a900473ffffffffffffffffffffffffffffffffffffffff1681565b6000600360009054906101000a900473ffffffffffffffffffffffffffffffffffffffff1673ffffffffffffffffffffffffffffffffffffffff163373ffffffffffffffffffffffffffffffffffffffff16141515610be057600080fd5b600160008373ffffffffffffffffffffffffffffffffffffffff1673ffffffffffffffffffffffffffffffffffffffff16815260200190815260200160002054905082811115610ca057610c3f836000546112a090919063ffffffff16565b600081905550610c5883826112a090919063ffffffff16565b600160008473ffffffffffffffffffffffffffffffffffffffff1673ffffffffffffffffffffffffffffffffffffffff16815260200190815260200160002081905550610d0c565b600081141515610cc657610cbf816000546112a090919063ffffffff16565b6000819055505b6000600160008473ffffffffffffffffffffffffffffffffffffffff1673ffffffffffffffffffffffffffffffffffffffff168152602001908152602001600020819055505b505050565b60058054600181600116156101000203166002900480601f016020809104026020016040519081016040528092919081815260200182805460018160011615610100020316600290048015610da75780601f10610d7c57610100808354040283529160200191610da7565b820191906000526020600020905b815481529060010190602001808311610d8a57829003601f168201915b505050505081565b60006007544210158015610dc4575060085442105b15610e2657600360009054906101000a900473ffffffffffffffffffffffffffffffffffffffff1673ffffffffffffffffffffffffffffffffffffffff163373ffffffffffffffffffffffffffffffffffffffff16141515610e2557600080fd5b5b600073ffffffffffffffffffffffffffffffffffffffff168373ffffffffffffffffffffffffffffffffffffffff1614151515610e6257600080fd5b610e6c83836112b9565b905092915050565b6000600260008473ffffffffffffffffffffffffffffffffffffffff1673ffffffffffffffffffffffffffffffffffffffff16815260200190815260200160002060008373ffffffffffffffffffffffffffffffffffffffff1673ffffffffffffffffffffffffffffffffffffffff16815260200190815260200160002054905092915050565b600360009054906101000a900473ffffffffffffffffffffffffffffffffffffffff1673ffffffffffffffffffffffffffffffffffffffff163373ffffffffffffffffffffffffffffffffffffffff16141515610f5757600080fd5b600073ffffffffffffffffffffffffffffffffffffffff168173ffffffffffffffffffffffffffffffffffffffff16141515610fcf5780600360006101000a81548173ffffffffffffffffffffffffffffffffffffffff021916908373ffffffffffffffffffffffffffffffffffffffff1602179055505b50565b600080600260008673ffffffffffffffffffffffffffffffffffffffff1673ffffffffffffffffffffffffffffffffffffffff16815260200190815260200160002060003373ffffffffffffffffffffffffffffffffffffffff1673ffffffffffffffffffffffffffffffffffffffff1681526020019081526020016000205490506110a683600160008773ffffffffffffffffffffffffffffffffffffffff1673ffffffffffffffffffffffffffffffffffffffff1681526020019081526020016000205461128290919063ffffffff16565b600160008673ffffffffffffffffffffffffffffffffffffffff1673ffffffffffffffffffffffffffffffffffffffff1681526020019081526020016000208190555061113b83600160008873ffffffffffffffffffffffffffffffffffffffff1673ffffffffffffffffffffffffffffffffffffffff168152602001908152602001600020546112a090919063ffffffff16565b600160008773ffffffffffffffffffffffffffffffffffffffff1673ffffffffffffffffffffffffffffffffffffffff1681526020019081526020016000208190555061119183826112a090919063ffffffff16565b600260008773ffffffffffffffffffffffffffffffffffffffff1673ffffffffffffffffffffffffffffffffffffffff16815260200190815260200160002060003373ffffffffffffffffffffffffffffffffffffffff1673ffffffffffffffffffffffffffffffffffffffff168152602001908152602001600020819055508373ffffffffffffffffffffffffffffffffffffffff168573ffffffffffffffffffffffffffffffffffffffff167fddf252ad1be2c89b69c2b068fc378daa952ba7f163c4a11628f55a4df523b3ef856040518082815260200191505060405180910390a360019150509392505050565b600080828401905083811015151561129657fe5b8091505092915050565b60008282111515156112ae57fe5b818303905092915050565b600061130d82600160003373ffffffffffffffffffffffffffffffffffffffff1673ffffffffffffffffffffffffffffffffffffffff168152602001908152602001600020546112a090919063ffffffff16565b600160003373ffffffffffffffffffffffffffffffffffffffff1673ffffffffffffffffffffffffffffffffffffffff168152602001908152602001600020819055506113a282600160008673ffffffffffffffffffffffffffffffffffffffff1673ffffffffffffffffffffffffffffffffffffffff1681526020019081526020016000205461128290919063ffffffff16565b600160008573ffffffffffffffffffffffffffffffffffffffff1673ffffffffffffffffffffffffffffffffffffffff168152602001908152602001600020819055508273ffffffffffffffffffffffffffffffffffffffff163373ffffffffffffffffffffffffffffffffffffffff167fddf252ad1be2c89b69c2b068fc378daa952ba7f163c4a11628f55a4df523b3ef846040518082815260200191505060405180910390a360019050929150505600a165627a7a723058203921fcaf5e37e80c9eb0fa1a0fe4948d35d89aaa1afc3dff55e1a24a90d3f0550029",
  "source": "pragma solidity ^0.4.18;\n\n/**\n * @title SafeMath\n * @dev Math operations with safety checks that throw on error\n */\nlibrary SafeMath {\n    function mul(uint a, uint b) internal pure returns (uint) {\n        if (a == 0) {\n            return 0;\n        }\n        uint c = a * b;\n        assert(c / a == b);\n        return c;\n    }\n\n    function div(uint a, uint b) internal pure returns (uint) {\n\n        uint c = a / b;\n\n        return c;\n    }\n\n    function sub(uint a, uint b) internal pure returns (uint) {\n        assert(b <= a);\n        return a - b;\n    }\n\n    function add(uint a, uint b) internal pure returns (uint) {\n        uint c = a + b;\n        assert(c >= a);\n        return c;\n    }\n}\n\n/**\n * @title ERC20Basic\n * @dev Simpler version of ERC20 interface\n * @dev see https://github.com/ethereum/EIPs/issues/179\n */\ncontract ERC20Basic {\n    uint256 public totalSupply;\n\n    function balanceOf(address who) public constant returns (uint);\n\n    function transfer(address to, uint value) public returns (bool);\n\n    event Transfer(address indexed from, address indexed to, uint value);\n}\n\n/**\n * @title Ownable\n * @dev The Ownable contract has an owner address, and provides basic authorization control\n * functions, this simplifies the implementation of \"user permissions\".\n */\ncontract Ownable {\n    address public owner;\n\n    function Ownable() public {\n        owner = msg.sender;\n    }\n\n    modifier onlyOwner() {\n        require(msg.sender == owner);\n        _;\n    }\n\n    function transferOwnership(address newOwner) public onlyOwner {\n        if (newOwner != address(0)) {\n            owner = newOwner;\n        }\n    }\n}\n\n/**\n * @title ERC20 interface\n * @dev see https://github.com/ethereum/EIPs/issues/20\n */\ncontract ERC20 is ERC20Basic {\n    function allowance(address owner, address spender) public constant returns (uint);\n\n    function transferFrom(address from, address to, uint value) public returns (bool);\n\n    function approve(address spender, uint value) public returns (bool);\n\n    event Approval(address indexed owner, address indexed spender, uint value);\n}\n\ncontract BasicToken is ERC20Basic {\n    using SafeMath for uint;\n    mapping (address => uint) balances;\n\n    function transfer(address _to, uint256 _value) public returns (bool) {\n        balances[msg.sender] = balances[msg.sender].sub(_value);\n        balances[_to] = balances[_to].add(_value);\n        Transfer(msg.sender, _to, _value);\n        return true;\n    }\n\n    function balanceOf(address _owner) public  constant returns (uint balance) {\n        return balances[_owner];\n    }\n}\n\n/**\n * @title Standard ERC20 token\n *\n * @dev Implementation of the basic standard token.\n * @dev https://github.com/ethereum/EIPs/issues/20\n * @dev Based on code by FirstBlood: https://github.com/Firstbloodio/token/blob/master/smart_contract/FirstBloodToken.sol\n */\ncontract StandardToken is ERC20, BasicToken {\n    mapping (address => mapping (address => uint)) allowed;\n\n\n    /**\n      * @dev Transfer tokens from one address to another\n      * @param _from address The address which you want to send tokens from\n      * @param _to address The address which you want to transfer to\n      * @param _value uint256 the amout of tokens to be transfered\n      */\n    function transferFrom(address _from, address _to, uint _value) public returns (bool) {\n        var _allowance = allowed[_from][msg.sender];\n\n        balances[_to] = balances[_to].add(_value);\n        balances[_from] = balances[_from].sub(_value);\n        allowed[_from][msg.sender] = _allowance.sub(_value);\n        Transfer(_from, _to, _value);\n        return true;\n    }\n    /**\n     * @dev Aprove the passed address to spend the specified amount of tokens on behalf of msg.sender.\n     * @param _spender The address which will spend the funds.\n     * @param _value The amount of tokens to be spent.\n     */\n    function approve(address _spender, uint _value) public returns (bool) {\n\n        require((_value == 0) || (allowed[msg.sender][_spender] == 0));\n        allowed[msg.sender][_spender] = _value;\n        Approval(msg.sender, _spender, _value);\n        return true;\n    }\n\n    /**\n      * @dev Function to check the amount of tokens that an owner allowed to a spender.\n      * @param _owner address The address which owns the funds.\n      * @param _spender address The address which will spend the funds.\n      * @return A uint256 specifing the amount of tokens still available for the spender.\n      */\n    function allowance(address _owner, address _spender) public constant returns (uint remaining) {\n        return allowed[_owner][_spender];\n    }\n}\n\n/**\n * @title Mintable token   \n */\ncontract MintableToken is StandardToken, Ownable {\n    event Mint(address indexed to, uint amount);\n\n    event MintFinished();\n\n    /**\n     * @dev minting status\n     */\n    bool public mintingFinished = false;\n\n    /**\n     * @dev Check token can mint or not\n     */\n    modifier canMint() {\n        require(!mintingFinished);\n        _;\n    }\n\n    /**\n     * @dev Mint token\n     * @param _to receiver address\n     * @param _amount amount of send value\n     * Only owner can do this function\n     * This can be done only when minting is not finish\n     */\n    function mint(address _to, uint _amount) public onlyOwner canMint returns (bool) {\n        totalSupply = totalSupply.add(_amount);\n        balances[_to] = balances[_to].add(_amount);\n        Mint(_to, _amount);\n        return true;\n    }\n\n    /**\n     * @dev Destroy (Burn) Token\n     * @param _amount number of destroy tokens\n     * @param destroyer who destroy the tokens\n     * Only owner can do this function\n     */\n    function destroy(uint _amount, address destroyer) public onlyOwner {\n        uint myBalance = balances[destroyer];\n        if (myBalance > _amount) {\n            totalSupply = totalSupply.sub(_amount);\n            balances[destroyer] = myBalance.sub(_amount);\n        }\n        else {\n            if (myBalance != 0) totalSupply = totalSupply.sub(myBalance);\n            balances[destroyer] = 0;\n        }\n    }\n\n    /**\n     * @dev Finish miting \n     */\n    function finishMinting() public onlyOwner returns (bool) {\n        mintingFinished = true;\n        MintFinished();\n        return true;\n    }\n}\n\ncontract TriracleToken is MintableToken {\n    string public name;\n\n    string public symbol;\n\n    uint8 public decimals;\n\n    uint public startTime;\n    uint public endTime;\n\n    modifier transferCheck() {\n        if (block.timestamp >= startTime && block.timestamp < endTime) {\n            require(msg.sender == owner);\n        }\n        _;\n    }\n\n    /**\n     * @dev Contructor of token\n     */\n    function TriracleToken(uint _startTime, uint _endTime) public {\n        name = \"TPP ICO TOKEN SALE\";\n        symbol = \"TPP\";\n        decimals = 18;\n        startTime = _startTime;\n        endTime = _endTime;\n        mint(msg.sender, 20000000000000000000000000); // 20m token\n    }\n\n    /**\n     * @dev overwrite transfer\n     */\n    function transfer(address to, uint value) public transferCheck returns (bool) {\n        require(to != address(0x0));\n\n        return super.transfer(to, value);\n    }\n\n    /**\n     * @dev overwrite transferFrom\n     */\n    function transferFrom(address from, address to, uint value) public returns (bool) {\n        require(to != address(0x0));\n        require(block.timestamp >= endTime);\n\n        return super.transferFrom(from, to, value);\n    }\n}\n\ncontract Crowdsale is Ownable {\n    using SafeMath for uint;\n\n    // use token for this address\n    TriracleToken public token;\n    // public address of wallet which receive ETH\n    address public wallet;\n    // amount of raised money\n    uint public totalWeiRaised;\n    // maximum amount can buy in wei\n    uint public capLimit;\n    // total wei each participant contribute\n    mapping(address=>uint) public totalContribute;\n    \n    /**\n     * @dev contructor for crowdsale\n     */\n    function Crowdsale() public {\n        token = createToken();\n        wallet = msg.sender;\n        capLimit = 1000000000000000000; // 1 ETH = 10 ^ 6 tokens\n    }\n\n    /**\n     * @dev create token for this contract\n     */\n    function createToken() internal returns (TriracleToken) {\n        return new TriracleToken(startTime, endTime);\n    }\n\n    /**\n     * @dev Set a new wallet\n     * @param newWallet new wallet the fund will be send to\n     */\n    function setWallet(address newWallet) public onlyOwner {\n        wallet = newWallet;\n    }\n\n    /**\n     * @dev Forward fund to address\n     * @param amount amount to be sent\n     */\n    function forwardFund(uint amount) internal {\n        wallet.transfer(amount);\n    }\n\n    /**\n     * @dev Refund to address\n     */\n    function refundExceed(address receiver, uint amount) internal {\n        receiver.transfer(amount);\n    }\n\n    /**\n     * @dev Check crowdsale is end\n     */\n    function hasEnd() public constant returns (bool) {\n        return block.timestamp < startTime || block.timestamp >= endTime;\n    }\n\n    /**\n     * @dev increase cap limit of tokens\n     * @param amount amount increase\n     */\n    function increaseCapLimit(uint amount) public onlyOwner {\n        capLimit.add(amount);\n    }\n\n    // 02/03/2018 12AM\n    uint startTime = 1520215800;\n    uint stage1 = startTime + 1 hours;\n    uint endTime = stage1 + 1 hours;\n\n    /**\n     * @dev Fallback function to buy token\n     */\n    function () public payable {\n        buyTokens(msg.sender);\n    }\n\n    /*\n     * @dev check eligible of buyer\n     * @param buyer address need to be checked\n     */\n    function eligibleCheck(address buyer) internal returns (uint) {\n        if (block.timestamp < startTime) return 0;\n        if (block.timestamp >= endTime) return 0;\n        \n        uint remainCap = capLimit.sub(totalContribute[buyer]);\n        uint weiAmount = msg.value;\n        if (remainCap < weiAmount) {\n            return remainCap;\n        }\n        else {\n            return weiAmount;\n        }\n    }\n\n    /**\n     * check if exceed balance limit then refund to buyer the exceeded\n     * @dev Forward fund to addressins.token().then((dm) => {tkadd = dm})\n\n     * @param benificary Who buy token\n     */\n    function buyTokens(address benificary) payable public returns (uint) {\n        require(benificary != address(0x0));\n        require(msg.value != 0);\n        require(!hasEnd());\n\n        uint weiAmount = eligibleCheck(msg.sender);\n        uint tokenAmount;\n\n        if (block.timestamp >= startTime && block.timestamp < stage1) {\n            tokenAmount = weiAmount.mul(1200); // 20% bonus in stage1\n        }\n        else {\n            tokenAmount = weiAmount.mul(1000);\n        }\n\n        if (msg.value > weiAmount) {\n            refundExceed(msg.sender, msg.value.sub(weiAmount));\n        }\n\n        forwardFund(weiAmount);\n        assert(token.transfer(benificary, weiAmount));\n        totalWeiRaised = totalWeiRaised.add(weiAmount);\n        totalContribute[msg.sender] = totalContribute[msg.sender].add(weiAmount);\n\n        return weiAmount;\n    }\n\n    /**\n     * @dev Destroy some token\n     * @param amount Amount of destroyed token\n     */\n    function destroyToken(uint amount) public onlyOwner {\n        token.destroy(amount.mul(1000000000000000000), msg.sender);\n    }\n\n    /**\n     * @dev If someone send ETH or any token to this address\n     * we can get it back\n     * @param anyToken Token need to be drained\n     */\n    function drainERC20Token(ERC20 anyToken) public onlyOwner returns (bool) {\n        require(hasEnd());\n\n        if (this.balance > 0) {\n            wallet.transfer(this.balance);\n        }\n\n        if (anyToken != address(0x0)) {\n            assert(anyToken.transfer(owner, anyToken.balanceOf(this)));\n        }        \n\n        return true;\n    }\n\n    /**\n     * @dev change the capacity limit each investor can buy\n     * @param limit new limit\n     */\n    function setCapLimit(uint limit) public onlyOwner {\n        capLimit = limit;\n    }\n}\n\ncontract TokenVault is Ownable {\n    using SafeMath for uint;\n    // the time when user can withdraw token\n    uint public endTime = 1520230200;\n    // total tokens of this contract\n    uint public totalToken;\n    // total token distributed\n    uint public tokenDistributed;\n    TriracleToken public token;\n    // number of tokens investors have in this contract\n    mapping(address=>uint) public holdingBalances;\n\n    function TokenVault(TriracleToken _token) public {\n        token = _token;\n    }\n\n    /*\n     * @dev withdraw the money from withdrawer,\n     * withdrawer must have more then amount to withdraw\n     * @param amount amount to withdraw\n     */\n    function withdraw(uint amount) public returns (bool) {\n        require(block.timestamp >= endTime);\n        require(holdingBalances[msg.sender] != 0);\n\n        if (amount > holdingBalances[msg.sender]) {\n            if (holdingBalances[msg.sender] != 0) {\n                assert(token.transfer(msg.sender, holdingBalances[msg.sender]));\n            }\n            holdingBalances[msg.sender] = 0;\n        }\n        else {\n            assert(token.transfer(msg.sender, amount));\n            holdingBalances[msg.sender] = holdingBalances[msg.sender].sub(amount);\n        }\n        return true;\n    }\n\n    /*\n     * @dev increase balance has in this contract\n     * @param receiver receiver of tokens\n     * @param amount amount of money\n     */\n    function increaseBalance(address receiver, uint amount) public onlyOwner {\n        require(block.timestamp < endTime);\n\n        assert(tokenDistributed.add(amount) > totalToken);\n\n        holdingBalances[receiver] = holdingBalances[receiver].add(amount);\n        tokenDistributed = tokenDistributed.add(amount);\n    }\n}\n\ncontract PlusPlusCrowdsale is Crowdsale {\n    // contract holding tokens of owner\n    TokenVault public vault;\n\n    function PlusPlusCrowdsale () public \n    Crowdsale()\n    {\n        vault = new TokenVault(token);\n        token.transfer(vault, 2000000000000000000000000); \n    }\n\n    function buyTriracleToken(address sender) public payable {\n        buyTokens(sender);\n    }\n\n    function () public payable {\n        buyTriracleToken(msg.sender);\n    }\n\n    function distributeVault(address receiver, uint amount) public onlyOwner {\n        vault.increaseBalance(receiver, amount);\n    }\n}\n",
  "sourcePath": "/home/tran/code/LineCentury/NewTriraclePlusPlus/contracts/PlusPlusCrowdsale.sol",
  "compiler": {
    "name": "solc",
    "version": "0.4.19+commit.c4cbbb05.Emscripten.clang"
  },
  "schemaVersion": "2.0.0",
  "updatedAt": "2018-03-05T10:23:56.216Z"
}