{
  "contractName": "VestingToken",
  "abi": [
    {
      "constant": true,
      "inputs": [],
      "name": "endTime",
      "outputs": [
        {
          "name": "",
          "type": "uint256"
        }
      ],
      "payable": false,
      "stateMutability": "view",
      "type": "function"
    },
    {
      "constant": false,
      "inputs": [
        {
          "name": "receiver",
          "type": "address"
        },
        {
          "name": "amount",
          "type": "uint256"
        }
      ],
      "name": "increaseBalance",
      "outputs": [],
      "payable": false,
      "stateMutability": "nonpayable",
      "type": "function"
    },
    {
      "constant": true,
      "inputs": [],
      "name": "totalToken",
      "outputs": [
        {
          "name": "",
          "type": "uint256"
        }
      ],
      "payable": false,
      "stateMutability": "view",
      "type": "function"
    },
    {
      "constant": true,
      "inputs": [],
      "name": "owner",
      "outputs": [
        {
          "name": "",
          "type": "address"
        }
      ],
      "payable": false,
      "stateMutability": "view",
      "type": "function"
    },
    {
      "constant": true,
      "inputs": [],
      "name": "tokenDistributed",
      "outputs": [
        {
          "name": "",
          "type": "uint256"
        }
      ],
      "payable": false,
      "stateMutability": "view",
      "type": "function"
    },
    {
      "constant": true,
      "inputs": [
        {
          "name": "",
          "type": "address"
        }
      ],
      "name": "holdingBalances",
      "outputs": [
        {
          "name": "",
          "type": "uint256"
        }
      ],
      "payable": false,
      "stateMutability": "view",
      "type": "function"
    },
    {
      "constant": false,
      "inputs": [
        {
          "name": "newOwner",
          "type": "address"
        }
      ],
      "name": "transferOwnership",
      "outputs": [],
      "payable": false,
      "stateMutability": "nonpayable",
      "type": "function"
    },
    {
      "constant": false,
      "inputs": [
        {
          "name": "withdrawer",
          "type": "address"
        },
        {
          "name": "amount",
          "type": "uint256"
        }
      ],
      "name": "withdraw",
      "outputs": [
        {
          "name": "",
          "type": "bool"
        }
      ],
      "payable": false,
      "stateMutability": "nonpayable",
      "type": "function"
    },
    {
      "constant": true,
      "inputs": [],
      "name": "token",
      "outputs": [
        {
          "name": "",
          "type": "address"
        }
      ],
      "payable": false,
      "stateMutability": "view",
      "type": "function"
    },
    {
      "inputs": [
        {
          "name": "_token",
          "type": "address"
        }
      ],
      "payable": false,
      "stateMutability": "nonpayable",
      "type": "constructor"
    }
  ],
  "bytecode": "0x6060604052635a9cdf38600155341561001757600080fd5b6040516020806109bf83398101604052808051906020019091905050336000806101000a81548173ffffffffffffffffffffffffffffffffffffffff021916908373ffffffffffffffffffffffffffffffffffffffff16021790555080600460006101000a81548173ffffffffffffffffffffffffffffffffffffffff021916908373ffffffffffffffffffffffffffffffffffffffff160217905550506108fb806100c46000396000f300606060405260043610610099576000357c0100000000000000000000000000000000000000000000000000000000900463ffffffff1680633197cbb61461009e5780635b86f599146100c7578063626be567146101095780638da5cb5b14610132578063de78b10914610187578063e04267ab146101b0578063f2fde38b146101fd578063f3fef3a314610236578063fc0c546a14610290575b600080fd5b34156100a957600080fd5b6100b16102e5565b6040518082815260200191505060405180910390f35b34156100d257600080fd5b610107600480803573ffffffffffffffffffffffffffffffffffffffff169060200190919080359060200190919050506102eb565b005b341561011457600080fd5b61011c6103e9565b6040518082815260200191505060405180910390f35b341561013d57600080fd5b6101456103ef565b604051808273ffffffffffffffffffffffffffffffffffffffff1673ffffffffffffffffffffffffffffffffffffffff16815260200191505060405180910390f35b341561019257600080fd5b61019a610414565b6040518082815260200191505060405180910390f35b34156101bb57600080fd5b6101e7600480803573ffffffffffffffffffffffffffffffffffffffff1690602001909190505061041a565b6040518082815260200191505060405180910390f35b341561020857600080fd5b610234600480803573ffffffffffffffffffffffffffffffffffffffff16906020019091905050610432565b005b341561024157600080fd5b610276600480803573ffffffffffffffffffffffffffffffffffffffff16906020019091908035906020019091905050610507565b604051808215151515815260200191505060405180910390f35b341561029b57600080fd5b6102a3610872565b604051808273ffffffffffffffffffffffffffffffffffffffff1673ffffffffffffffffffffffffffffffffffffffff16815260200191505060405180910390f35b60015481565b6000809054906101000a900473ffffffffffffffffffffffffffffffffffffffff1673ffffffffffffffffffffffffffffffffffffffff163373ffffffffffffffffffffffffffffffffffffffff1614151561034657600080fd5b6001544210151561035657600080fd5b60025461036e8260035461089890919063ffffffff16565b11151561037757fe5b6103c981600560008573ffffffffffffffffffffffffffffffffffffffff1673ffffffffffffffffffffffffffffffffffffffff1681526020019081526020016000205461089890919063ffffffff16565b506103df8160035461089890919063ffffffff16565b6003819055505050565b60025481565b6000809054906101000a900473ffffffffffffffffffffffffffffffffffffffff1681565b60035481565b60056020528060005260406000206000915090505481565b6000809054906101000a900473ffffffffffffffffffffffffffffffffffffffff1673ffffffffffffffffffffffffffffffffffffffff163373ffffffffffffffffffffffffffffffffffffffff1614151561048d57600080fd5b600073ffffffffffffffffffffffffffffffffffffffff168173ffffffffffffffffffffffffffffffffffffffff1614151561050457806000806101000a81548173ffffffffffffffffffffffffffffffffffffffff021916908373ffffffffffffffffffffffffffffffffffffffff1602179055505b50565b6000600154421015151561051a57600080fd5b600560008473ffffffffffffffffffffffffffffffffffffffff1673ffffffffffffffffffffffffffffffffffffffff16815260200190815260200160002054821115610724576000600560008573ffffffffffffffffffffffffffffffffffffffff1673ffffffffffffffffffffffffffffffffffffffff168152602001908152602001600020541415156106da57600460009054906101000a900473ffffffffffffffffffffffffffffffffffffffff1673ffffffffffffffffffffffffffffffffffffffff1663a9059cbb84600560008773ffffffffffffffffffffffffffffffffffffffff1673ffffffffffffffffffffffffffffffffffffffff168152602001908152602001600020546000604051602001526040518363ffffffff167c0100000000000000000000000000000000000000000000000000000000028152600401808373ffffffffffffffffffffffffffffffffffffffff1673ffffffffffffffffffffffffffffffffffffffff16815260200182815260200192505050602060405180830381600087803b15156106b657600080fd5b6102c65a03f115156106c757600080fd5b5050506040518051905015156106d957fe5b5b6000600560008573ffffffffffffffffffffffffffffffffffffffff1673ffffffffffffffffffffffffffffffffffffffff16815260200190815260200160002081905550610868565b600460009054906101000a900473ffffffffffffffffffffffffffffffffffffffff1673ffffffffffffffffffffffffffffffffffffffff1663a9059cbb84846000604051602001526040518363ffffffff167c0100000000000000000000000000000000000000000000000000000000028152600401808373ffffffffffffffffffffffffffffffffffffffff1673ffffffffffffffffffffffffffffffffffffffff16815260200182815260200192505050602060405180830381600087803b15156107f157600080fd5b6102c65a03f1151561080257600080fd5b50505060405180519050151561081457fe5b61086682600560008673ffffffffffffffffffffffffffffffffffffffff1673ffffffffffffffffffffffffffffffffffffffff168152602001908152602001600020546108b690919063ffffffff16565b505b6001905092915050565b600460009054906101000a900473ffffffffffffffffffffffffffffffffffffffff1681565b60008082840190508381101515156108ac57fe5b8091505092915050565b60008282111515156108c457fe5b8183039050929150505600a165627a7a72305820578f82ae3a2272cbf43a350fe827a7a9802fdc8261fb7bd04aafa3ec0a8ed7f50029",
  "source": "pragma solidity ^0.4.18;\n\n/**\n * @title SafeMath\n * @dev Math operations with safety checks that throw on error\n */\nlibrary SafeMath {\n    function mul(uint a, uint b) internal pure returns (uint) {\n        if (a == 0) {\n            return 0;\n        }\n        uint c = a * b;\n        assert(c / a == b);\n        return c;\n    }\n\n    function div(uint a, uint b) internal pure returns (uint) {\n\n        uint c = a / b;\n\n        return c;\n    }\n\n    function sub(uint a, uint b) internal pure returns (uint) {\n        assert(b <= a);\n        return a - b;\n    }\n\n    function add(uint a, uint b) internal pure returns (uint) {\n        uint c = a + b;\n        assert(c >= a);\n        return c;\n    }\n}\n\n/**\n * @title ERC20Basic\n * @dev Simpler version of ERC20 interface\n * @dev see https://github.com/ethereum/EIPs/issues/179\n */\ncontract ERC20Basic {\n    uint256 public totalSupply;\n\n    function balanceOf(address who) public constant returns (uint);\n\n    function transfer(address to, uint value) public returns (bool);\n\n    event Transfer(address indexed from, address indexed to, uint value);\n}\n\n/**\n * @title Ownable\n * @dev The Ownable contract has an owner address, and provides basic authorization control\n * functions, this simplifies the implementation of \"user permissions\".\n */\ncontract Ownable {\n    address public owner;\n\n    function Ownable() public {\n        owner = msg.sender;\n    }\n\n    modifier onlyOwner() {\n        require(msg.sender == owner);\n        _;\n    }\n\n    function transferOwnership(address newOwner) public onlyOwner {\n        if (newOwner != address(0)) {\n            owner = newOwner;\n        }\n    }\n}\n\n/**\n * @title ERC20 interface\n * @dev see https://github.com/ethereum/EIPs/issues/20\n */\ncontract ERC20 is ERC20Basic {\n    function allowance(address owner, address spender) public constant returns (uint);\n\n    function transferFrom(address from, address to, uint value) public returns (bool);\n\n    function approve(address spender, uint value) public returns (bool);\n\n    event Approval(address indexed owner, address indexed spender, uint value);\n}\n\ncontract BasicToken is ERC20Basic {\n    using SafeMath for uint;\n    mapping (address => uint) balances;\n\n    function transfer(address _to, uint256 _value) public returns (bool) {\n        balances[msg.sender] = balances[msg.sender].sub(_value);\n        balances[_to] = balances[_to].add(_value);\n        Transfer(msg.sender, _to, _value);\n        return true;\n    }\n\n    function balanceOf(address _owner) public  constant returns (uint balance) {\n        return balances[_owner];\n    }\n}\n\n/**\n * @title Standard ERC20 token\n *\n * @dev Implementation of the basic standard token.\n * @dev https://github.com/ethereum/EIPs/issues/20\n * @dev Based on code by FirstBlood: https://github.com/Firstbloodio/token/blob/master/smart_contract/FirstBloodToken.sol\n */\ncontract StandardToken is ERC20, BasicToken {\n    mapping (address => mapping (address => uint)) allowed;\n\n\n    /**\n      * @dev Transfer tokens from one address to another\n      * @param _from address The address which you want to send tokens from\n      * @param _to address The address which you want to transfer to\n      * @param _value uint256 the amout of tokens to be transfered\n      */\n    function transferFrom(address _from, address _to, uint _value) public returns (bool) {\n        var _allowance = allowed[_from][msg.sender];\n\n        balances[_to] = balances[_to].add(_value);\n        balances[_from] = balances[_from].sub(_value);\n        allowed[_from][msg.sender] = _allowance.sub(_value);\n        Transfer(_from, _to, _value);\n        return true;\n    }\n    /**\n     * @dev Aprove the passed address to spend the specified amount of tokens on behalf of msg.sender.\n     * @param _spender The address which will spend the funds.\n     * @param _value The amount of tokens to be spent.\n     */\n    function approve(address _spender, uint _value) public returns (bool) {\n\n        require((_value == 0) || (allowed[msg.sender][_spender] == 0));\n        allowed[msg.sender][_spender] = _value;\n        Approval(msg.sender, _spender, _value);\n        return true;\n    }\n\n    /**\n      * @dev Function to check the amount of tokens that an owner allowed to a spender.\n      * @param _owner address The address which owns the funds.\n      * @param _spender address The address which will spend the funds.\n      * @return A uint256 specifing the amount of tokens still available for the spender.\n      */\n    function allowance(address _owner, address _spender) public constant returns (uint remaining) {\n        return allowed[_owner][_spender];\n    }\n}\n\n\n/**\n * @title Mintable token   \n */\ncontract MintableToken is StandardToken, Ownable {\n    event Mint(address indexed to, uint amount);\n\n    event MintFinished();\n\n    /**\n     * @dev minting status\n     */\n    bool public mintingFinished = false;\n\n    /**\n     * @dev Check token can mint or not\n     */\n    modifier canMint() {\n        require(!mintingFinished);\n        _;\n    }\n\n    /**\n     * @dev Mint token\n     * @param _to receiver address\n     * @param _amount amount of send value\n     * Only owner can do this function\n     * This can be done only when minting is not finish\n     */\n    function mint(address _to, uint _amount) public onlyOwner canMint returns (bool) {\n        totalSupply = totalSupply.add(_amount);\n        balances[_to] = balances[_to].add(_amount);\n        Mint(_to, _amount);\n        return true;\n    }\n\n    /**\n     * @dev Destroy (Burn) Token\n     * @param _amount number of destroy tokens\n     * @param destroyer who destroy the tokens\n     * Only owner can do this function\n     */\n    function destroy(uint _amount, address destroyer) public onlyOwner {\n        uint myBalance = balances[destroyer];\n        if (myBalance > _amount) {\n            totalSupply = totalSupply.sub(_amount);\n            balances[destroyer] = myBalance.sub(_amount);\n        }\n        else {\n            if (myBalance != 0) totalSupply = totalSupply.sub(myBalance);\n            balances[destroyer] = 0;\n        }\n    }\n\n    /**\n     * @dev Finish miting \n     */\n    function finishMinting() public onlyOwner returns (bool) {\n        mintingFinished = true;\n        MintFinished();\n        return true;\n    }\n}\n\ncontract TriracleToken is MintableToken {\n    string public name;\n\n    string public symbol;\n\n    uint8 public decimals;\n\n    uint public startTime;\n    uint public endTime;\n\n    /**\n     * @dev Contructor of token\n     */\n    function TriracleToken(uint _startTime, uint _endTime) public {\n        name = \"TPP ICO TOKEN SALE\";\n        symbol = \"TPP\";\n        decimals = 18;\n        startTime = _startTime;\n        endTime = _endTime;\n        mint(msg.sender, 20000000000000000000000000); // 20m token\n    }\n\n    /**\n     * @dev overwrite transfer\n     */\n    function transfer(address to, uint value) public returns (bool) {\n        require(to != address(0x0));\n\n        super.transfer(to, value);\n    }\n\n    /**\n     * @dev overwrite transferFrom\n     */\n    function transferFrom(address from, address to, uint value) public returns (bool) {\n        require(to != address(0x0));\n\n        super.transferFrom(from, to, value);\n    }\n}\n\ncontract Crowdsale is Ownable {\n    using SafeMath for uint;\n\n    // use token for this address\n    TriracleToken public token;\n    // public address of wallet which receive ETH\n    address public wallet;\n    // amount of raised money\n    uint public totalWeiRaised;\n    // maximum amount can buy in wei\n    uint public capLimit;\n    // total wei each participant contribute\n    mapping(address=>uint) public totalContribute;\n    \n    /**\n     * @dev contructor for crowdsale\n     */\n    function Crowdsale() public {\n        token = createToken();\n        wallet = msg.sender;\n        capLimit = 1000000000000000000; // 1 ETH = 10 ^ 6 tokens\n    }\n\n    /**\n     * @dev create token for this contract\n     */\n    function createToken() internal returns (TriracleToken) {\n        return new TriracleToken(startTime, endTime);\n    }\n\n    /**\n     * @dev Set a new wallet\n     * @param newWallet new wallet the fund will be send to\n     */\n    function setWallet(address newWallet) public onlyOwner {\n        wallet = newWallet;\n    }\n\n    /**\n     * @dev Forward fund to address\n     * @param amount amount to be sent\n     */\n    function forwardFund(uint amount) internal {\n        wallet.transfer(amount);\n    }\n\n    /**\n     * @dev Refund to address\n     */\n    function refundExceed(address receiver, uint amount) internal {\n        receiver.transfer(amount);\n    }\n\n    /**\n     * @dev Check crowdsale is end\n     */\n    function hasEnd() public constant returns (bool) {\n        return block.timestamp < startTime || block.timestamp >= endTime;\n    }\n\n    /**\n     * @dev increase cap limit of tokens\n     * @param amount amount increase\n     */\n    function increaseCapLimit(uint amount) public onlyOwner {\n        capLimit.add(amount);\n    }\n\n    // 02/03/2018 12AM\n    uint startTime = 1520215800;\n    uint stage1 = startTime + 1 hours;\n    uint endTime = stage1 + 1 hours;\n\n    /**\n     * @dev Fallback function to buy token\n     */\n    function () public payable {\n        buyTokens(msg.sender);\n    }\n\n    /*\n     * @dev check eligible of buyer\n     * @param buyer address need to be checked\n     */\n    function eligibleCheck(address buyer) internal returns (uint) {\n        if (block.timestamp < startTime) return 0;\n        if (block.timestamp >= endTime) return 0;\n        \n        uint remainCap = capLimit.sub(totalContribute[buyer]);\n        uint weiAmount = msg.value;\n        if (remainCap < weiAmount) {\n            return remainCap;\n        }\n        else {\n            return weiAmount;\n        }\n    }\n\n    /**\n     * check if exceed balance limit then refund to buyer the exceeded\n     * @dev Forward fund to addressins.token().then((dm) => {tkadd = dm})\n\n     * @param benificary Who buy token\n     */\n    function buyTokens(address benificary) payable public returns (uint) {\n        require(benificary != address(0x0));\n        require(msg.value != 0);\n        require(!hasEnd());\n\n        uint weiAmount = eligibleCheck(msg.sender);\n        uint tokenAmount;\n\n        if (block.timestamp >= startTime && block.timestamp < stage1) {\n            tokenAmount = weiAmount.mul(1200); // 20% bonus in stage1\n        }\n        else {\n            tokenAmount = weiAmount.mul(1000);\n        }\n\n        if (msg.value > weiAmount) {\n            refundExceed(msg.sender, msg.value.sub(weiAmount));\n        }\n\n        forwardFund(weiAmount);\n        assert(token.transfer(benificary, weiAmount));\n        totalWeiRaised = totalWeiRaised.add(weiAmount);\n        totalContribute[msg.sender] = totalContribute[msg.sender].add(weiAmount);\n\n        return weiAmount;\n    }\n\n    /**\n     * @dev Destroy some token\n     * @param amount Amount of destroyed token\n     */\n    function destroyToken(uint amount) public onlyOwner {\n        token.destroy(amount.mul(1000000000000000000), msg.sender);\n    }\n\n    /**\n     * @dev If someone send ETH or any token to this address\n     * we can get it back\n     * @param anyToken Token need to be drained\n     */\n    function drainERC20Token(ERC20 anyToken) public onlyOwner returns (bool) {\n        require(hasEnd());\n\n        if (this.balance > 0) {\n            wallet.transfer(this.balance);\n        }\n\n        if (anyToken != address(0x0)) {\n            assert(anyToken.transfer(owner, anyToken.balanceOf(this)));\n        }        \n\n        return true;\n    }\n\n    /**\n     * @dev change the capacity limit each investor can buy\n     * @param limit new limit\n     */\n    function setCapLimit(uint limit) public onlyOwner {\n        capLimit = limit;\n    }\n}\n\n\n\n\n\n\ncontract VestingToken is Ownable {\n    using SafeMath for uint;\n    // the time when user can withdraw token\n    uint public endTime = 1520230200;\n    // total tokens of this contract\n    uint public totalToken;\n    // total token distributed\n    uint public tokenDistributed;\n    TriracleToken public token;\n    // number of tokens investors have in this contract\n    mapping(address=>uint) public holdingBalances;\n\n    function VestingToken(TriracleToken _token) public {\n        token = _token;\n\n    }\n\n    /*\n     * @dev withdraw the money from withdrawer,\n     * withdrawer must have more then amount to withdraw\n     * @param withdrawer\n     * @param amount amount to withdraw\n     */\n    function withdraw(address withdrawer, uint amount) public returns (bool) {\n        require(block.timestamp >= endTime);\n\n        if (amount > holdingBalances[withdrawer]) {\n            if (holdingBalances[withdrawer] != 0) {\n                assert(token.transfer(withdrawer, holdingBalances[withdrawer]));\n            }\n            holdingBalances[withdrawer] = 0;\n        }\n        else {\n            assert(token.transfer(withdrawer, amount));\n            holdingBalances[withdrawer].sub(amount);\n        }\n        return true;\n    }\n\n    /*\n     * @dev increase balance has in this contract\n     * @param receiver receiver of tokens\n     * @param amount amount of money\n     */\n    function increaseBalance(address receiver, uint amount) public onlyOwner {\n        require(block.timestamp < endTime);\n\n        assert(tokenDistributed.add(amount) > totalToken);\n\n        holdingBalances[receiver].add(amount);\n        tokenDistributed = tokenDistributed.add(amount);\n    }\n}\n\ncontract PlusPlusCrowdsale is Crowdsale {\n    // contract holding tokens of owner\n    VestingToken public vestingContract;\n\n    function PlusPlusCrowdsale () public \n    Crowdsale()\n    {\n        vestingContract = new VestingToken(token);\n        token.transfer(vestingContract, 2000000000000000000000000); \n    }\n\n    function buyTriracleToken(address sender) public payable {\n        buyTokens(sender);\n    }\n\n    function () public payable {\n        buyTriracleToken(msg.sender);\n    }\n}\n",
  "sourcePath": "/home/tran/code/LineCentury/NewTriraclePlusPlus/contracts/PlusPlusCrowdsale.sol",
  "compiler": {
    "name": "solc",
    "version": "0.4.19+commit.c4cbbb05.Emscripten.clang"
  },
  "schemaVersion": "2.0.0",
  "updatedAt": "2018-03-05T04:00:18.173Z"
}